{
  "contractName": "MultiSignature",
  "abi": [
    {
      "inputs": [
        {
          "internalType": "uint256",
          "name": "_minimumSignatures",
          "type": "uint256"
        }
      ],
      "stateMutability": "nonpayable",
      "type": "constructor"
    },
    {
      "inputs": [
        {
          "internalType": "bytes32",
          "name": "documentHash",
          "type": "bytes32"
        },
        {
          "internalType": "address",
          "name": "signer",
          "type": "address"
        },
        {
          "internalType": "bytes",
          "name": "signature",
          "type": "bytes"
        }
      ],
      "name": "addSignature",
      "outputs": [],
      "stateMutability": "nonpayable",
      "type": "function"
    },
    {
      "inputs": [],
      "name": "isSigned",
      "outputs": [
        {
          "internalType": "bool",
          "name": "",
          "type": "bool"
        }
      ],
      "stateMutability": "view",
      "type": "function",
      "constant": true
    },
    {
      "inputs": [],
      "name": "validateTransaction",
      "outputs": [],
      "stateMutability": "nonpayable",
      "type": "function"
    }
  ],
  "bytecode": "0x608060405234801561001057600080fd5b506040516107053803806107058339818101604052810190610032919061007a565b80600181905550506100a7565b600080fd5b6000819050919050565b61005781610044565b811461006257600080fd5b50565b6000815190506100748161004e565b92915050565b6000602082840312156100905761008f61003f565b5b600061009e84828501610065565b91505092915050565b61064f806100b66000396000f3fe608060405234801561001057600080fd5b50600436106100415760003560e01c80635e280e4e14610046578063bbdc646a14610050578063e66a6b221461006c575b600080fd5b61004e61008a565b005b61006a60048036038101906100659190610496565b6100d3565b005b6100746101f3565b6040516100819190610520565b60405180910390f35b6100926101f3565b6100d1576040517f08c379a00000000000000000000000000000000000000000000000000000000081526004016100c890610598565b60405180910390fd5b565b6001546000805490501061011c576040517f08c379a000000000000000000000000000000000000000000000000000000000815260040161011390610598565b60405180910390fd5b600060405180606001604052808581526020018473ffffffffffffffffffffffffffffffffffffffff16815260200183815250905060008190806001815401808255809150506001900390600052602060002090600302016000909190919091506000820151816000015560208201518160010160006101000a81548173ffffffffffffffffffffffffffffffffffffffff021916908373ffffffffffffffffffffffffffffffffffffffff16021790555060408201518160020190805190602001906101ea929190610205565b50505050505050565b60006001546000805490501015905090565b828054610211906105e7565b90600052602060002090601f016020900481019282610233576000855561027a565b82601f1061024c57805160ff191683800117855561027a565b8280016001018555821561027a579182015b8281111561027957825182559160200191906001019061025e565b5b509050610287919061028b565b5090565b5b808211156102a457600081600090555060010161028c565b5090565b6000604051905090565b600080fd5b600080fd5b6000819050919050565b6102cf816102bc565b81146102da57600080fd5b50565b6000813590506102ec816102c6565b92915050565b600073ffffffffffffffffffffffffffffffffffffffff82169050919050565b600061031d826102f2565b9050919050565b61032d81610312565b811461033857600080fd5b50565b60008135905061034a81610324565b92915050565b600080fd5b600080fd5b6000601f19601f8301169050919050565b7f4e487b7100000000000000000000000000000000000000000000000000000000600052604160045260246000fd5b6103a38261035a565b810181811067ffffffffffffffff821117156103c2576103c161036b565b5b80604052505050565b60006103d56102a8565b90506103e1828261039a565b919050565b600067ffffffffffffffff8211156104015761040061036b565b5b61040a8261035a565b9050602081019050919050565b82818337600083830152505050565b6000610439610434846103e6565b6103cb565b90508281526020810184848401111561045557610454610355565b5b610460848285610417565b509392505050565b600082601f83011261047d5761047c610350565b5b813561048d848260208601610426565b91505092915050565b6000806000606084860312156104af576104ae6102b2565b5b60006104bd868287016102dd565b93505060206104ce8682870161033b565b925050604084013567ffffffffffffffff8111156104ef576104ee6102b7565b5b6104fb86828701610468565b9150509250925092565b60008115159050919050565b61051a81610505565b82525050565b60006020820190506105356000830184610511565b92915050565b600082825260208201905092915050565b7f4e6f7420656e6f756768207369676e6174757265730000000000000000000000600082015250565b600061058260158361053b565b915061058d8261054c565b602082019050919050565b600060208201905081810360008301526105b181610575565b9050919050565b7f4e487b7100000000000000000000000000000000000000000000000000000000600052602260045260246000fd5b600060028204905060018216806105ff57607f821691505b60208210811415610613576106126105b8565b5b5091905056fea2646970667358221220c753259b4fab5fbea8bc67ace173adafce0dd832b4b9b2596c20d3d62b1e421764736f6c63430008090033",
  "immutableReferences": {},
  "source": "pragma solidity ^0.8.9;\n\ncontract MultiSignature {\n    struct Signature {\n        bytes32 hash;\n        address signer;\n        bytes signature;\n    }\n\n    Signature[] signatures;\n    uint256 minimumSignatures;\n\n    constructor(uint256 _minimumSignatures) public {\n        minimumSignatures = _minimumSignatures;\n    }\n\n    function addSignature(bytes32 documentHash, address signer, bytes memory signature) public {\n        require(signatures.length < minimumSignatures, \"Not enough signatures\");\n        Signature memory s = Signature({\n            hash: documentHash,\n            signer: signer,\n            signature: signature\n        });\n        signatures.push(s);\n    }\n\n    function isSigned() public view returns (bool) {\n        return signatures.length >= minimumSignatures;\n    }\n\n    function validateTransaction() public {\n        require(isSigned(), \"Not enough signatures\");\n        // Do something with the transaction    }\n}\n\n}\n",
  "sourcePath": "C:\\Users\\DELL\\Bureau\\TruffleTest\\contracts\\MultiSignature.sol",
  "compiler": {
    "name": "solc",
    "version": "0.8.9+commit.e5eed63a.Emscripten.clang"
  },
  "schemaVersion": "3.4.11",
  "updatedAt": "2023-01-30T16:47:05.489Z",
  "networkType": "ethereum",
  "devdoc": {
    "kind": "dev",
    "methods": {},
    "version": 1
  },
  "userdoc": {
    "kind": "user",
    "methods": {},
    "version": 1
  }
}